{
  "_format": "hh-sol-artifact-1",
  "contractName": "NFTMarketHub",
  "sourceName": "contracts/NFTMarketHub.sol",
  "abi": [
    {
      "inputs": [],
      "stateMutability": "nonpayable",
      "type": "constructor"
    },
    {
      "inputs": [],
      "name": "AlreadyListed",
      "type": "error"
    },
    {
      "inputs": [
        {
          "internalType": "address",
          "name": "sender",
          "type": "address"
        },
        {
          "internalType": "uint256",
          "name": "tokenId",
          "type": "uint256"
        },
        {
          "internalType": "address",
          "name": "owner",
          "type": "address"
        }
      ],
      "name": "ERC721IncorrectOwner",
      "type": "error"
    },
    {
      "inputs": [
        {
          "internalType": "address",
          "name": "operator",
          "type": "address"
        },
        {
          "internalType": "uint256",
          "name": "tokenId",
          "type": "uint256"
        }
      ],
      "name": "ERC721InsufficientApproval",
      "type": "error"
    },
    {
      "inputs": [
        {
          "internalType": "address",
          "name": "approver",
          "type": "address"
        }
      ],
      "name": "ERC721InvalidApprover",
      "type": "error"
    },
    {
      "inputs": [
        {
          "internalType": "address",
          "name": "operator",
          "type": "address"
        }
      ],
      "name": "ERC721InvalidOperator",
      "type": "error"
    },
    {
      "inputs": [
        {
          "internalType": "address",
          "name": "owner",
          "type": "address"
        }
      ],
      "name": "ERC721InvalidOwner",
      "type": "error"
    },
    {
      "inputs": [
        {
          "internalType": "address",
          "name": "receiver",
          "type": "address"
        }
      ],
      "name": "ERC721InvalidReceiver",
      "type": "error"
    },
    {
      "inputs": [
        {
          "internalType": "address",
          "name": "sender",
          "type": "address"
        }
      ],
      "name": "ERC721InvalidSender",
      "type": "error"
    },
    {
      "inputs": [
        {
          "internalType": "uint256",
          "name": "tokenId",
          "type": "uint256"
        }
      ],
      "name": "ERC721NonexistentToken",
      "type": "error"
    },
    {
      "inputs": [],
      "name": "InsufficientFunds",
      "type": "error"
    },
    {
      "inputs": [],
      "name": "NotListed",
      "type": "error"
    },
    {
      "inputs": [],
      "name": "NotOwner",
      "type": "error"
    },
    {
      "inputs": [
        {
          "internalType": "address",
          "name": "owner",
          "type": "address"
        }
      ],
      "name": "OwnableInvalidOwner",
      "type": "error"
    },
    {
      "inputs": [
        {
          "internalType": "address",
          "name": "account",
          "type": "address"
        }
      ],
      "name": "OwnableUnauthorizedAccount",
      "type": "error"
    },
    {
      "inputs": [],
      "name": "PriceMustBeAboveZero",
      "type": "error"
    },
    {
      "inputs": [],
      "name": "ReentrancyGuardReentrantCall",
      "type": "error"
    },
    {
      "anonymous": false,
      "inputs": [
        {
          "indexed": true,
          "internalType": "address",
          "name": "owner",
          "type": "address"
        },
        {
          "indexed": true,
          "internalType": "address",
          "name": "approved",
          "type": "address"
        },
        {
          "indexed": true,
          "internalType": "uint256",
          "name": "tokenId",
          "type": "uint256"
        }
      ],
      "name": "Approval",
      "type": "event"
    },
    {
      "anonymous": false,
      "inputs": [
        {
          "indexed": true,
          "internalType": "address",
          "name": "owner",
          "type": "address"
        },
        {
          "indexed": true,
          "internalType": "address",
          "name": "operator",
          "type": "address"
        },
        {
          "indexed": false,
          "internalType": "bool",
          "name": "approved",
          "type": "bool"
        }
      ],
      "name": "ApprovalForAll",
      "type": "event"
    },
    {
      "anonymous": false,
      "inputs": [
        {
          "indexed": false,
          "internalType": "uint256",
          "name": "_fromTokenId",
          "type": "uint256"
        },
        {
          "indexed": false,
          "internalType": "uint256",
          "name": "_toTokenId",
          "type": "uint256"
        }
      ],
      "name": "BatchMetadataUpdate",
      "type": "event"
    },
    {
      "anonymous": false,
      "inputs": [
        {
          "indexed": true,
          "internalType": "address",
          "name": "owner",
          "type": "address"
        },
        {
          "indexed": false,
          "internalType": "uint256",
          "name": "amount",
          "type": "uint256"
        }
      ],
      "name": "FundsWithdrawn",
      "type": "event"
    },
    {
      "anonymous": false,
      "inputs": [
        {
          "indexed": false,
          "internalType": "uint256",
          "name": "_tokenId",
          "type": "uint256"
        }
      ],
      "name": "MetadataUpdate",
      "type": "event"
    },
    {
      "anonymous": false,
      "inputs": [
        {
          "indexed": true,
          "internalType": "uint256",
          "name": "tokenId",
          "type": "uint256"
        }
      ],
      "name": "NFTDelisted",
      "type": "event"
    },
    {
      "anonymous": false,
      "inputs": [
        {
          "indexed": true,
          "internalType": "uint256",
          "name": "tokenId",
          "type": "uint256"
        },
        {
          "indexed": false,
          "internalType": "uint256",
          "name": "price",
          "type": "uint256"
        }
      ],
      "name": "NFTListed",
      "type": "event"
    },
    {
      "anonymous": false,
      "inputs": [
        {
          "indexed": true,
          "internalType": "uint256",
          "name": "tokenId",
          "type": "uint256"
        },
        {
          "indexed": true,
          "internalType": "address",
          "name": "owner",
          "type": "address"
        }
      ],
      "name": "NFTMinted",
      "type": "event"
    },
    {
      "anonymous": false,
      "inputs": [
        {
          "indexed": true,
          "internalType": "uint256",
          "name": "tokenId",
          "type": "uint256"
        },
        {
          "indexed": true,
          "internalType": "address",
          "name": "buyer",
          "type": "address"
        },
        {
          "indexed": false,
          "internalType": "uint256",
          "name": "price",
          "type": "uint256"
        }
      ],
      "name": "NFTSold",
      "type": "event"
    },
    {
      "anonymous": false,
      "inputs": [
        {
          "indexed": true,
          "internalType": "address",
          "name": "previousOwner",
          "type": "address"
        },
        {
          "indexed": true,
          "internalType": "address",
          "name": "newOwner",
          "type": "address"
        }
      ],
      "name": "OwnershipTransferred",
      "type": "event"
    },
    {
      "anonymous": false,
      "inputs": [
        {
          "indexed": true,
          "internalType": "address",
          "name": "from",
          "type": "address"
        },
        {
          "indexed": true,
          "internalType": "address",
          "name": "to",
          "type": "address"
        },
        {
          "indexed": true,
          "internalType": "uint256",
          "name": "tokenId",
          "type": "uint256"
        }
      ],
      "name": "Transfer",
      "type": "event"
    },
    {
      "inputs": [
        {
          "internalType": "address",
          "name": "to",
          "type": "address"
        },
        {
          "internalType": "uint256",
          "name": "tokenId",
          "type": "uint256"
        }
      ],
      "name": "approve",
      "outputs": [],
      "stateMutability": "nonpayable",
      "type": "function"
    },
    {
      "inputs": [
        {
          "internalType": "address",
          "name": "owner",
          "type": "address"
        }
      ],
      "name": "balanceOf",
      "outputs": [
        {
          "internalType": "uint256",
          "name": "",
          "type": "uint256"
        }
      ],
      "stateMutability": "view",
      "type": "function"
    },
    {
      "inputs": [
        {
          "internalType": "uint256",
          "name": "tokenId",
          "type": "uint256"
        }
      ],
      "name": "buyNFT",
      "outputs": [],
      "stateMutability": "payable",
      "type": "function"
    },
    {
      "inputs": [
        {
          "internalType": "uint256",
          "name": "tokenId",
          "type": "uint256"
        }
      ],
      "name": "delistNFT",
      "outputs": [],
      "stateMutability": "nonpayable",
      "type": "function"
    },
    {
      "inputs": [
        {
          "internalType": "uint256",
          "name": "tokenId",
          "type": "uint256"
        }
      ],
      "name": "getApproved",
      "outputs": [
        {
          "internalType": "address",
          "name": "",
          "type": "address"
        }
      ],
      "stateMutability": "view",
      "type": "function"
    },
    {
      "inputs": [
        {
          "internalType": "address",
          "name": "owner",
          "type": "address"
        },
        {
          "internalType": "address",
          "name": "operator",
          "type": "address"
        }
      ],
      "name": "isApprovedForAll",
      "outputs": [
        {
          "internalType": "bool",
          "name": "",
          "type": "bool"
        }
      ],
      "stateMutability": "view",
      "type": "function"
    },
    {
      "inputs": [
        {
          "internalType": "uint256",
          "name": "tokenId",
          "type": "uint256"
        },
        {
          "internalType": "uint256",
          "name": "price",
          "type": "uint256"
        }
      ],
      "name": "listNFT",
      "outputs": [],
      "stateMutability": "nonpayable",
      "type": "function"
    },
    {
      "inputs": [
        {
          "internalType": "string",
          "name": "tokenURI",
          "type": "string"
        }
      ],
      "name": "mintNFT",
      "outputs": [],
      "stateMutability": "nonpayable",
      "type": "function"
    },
    {
      "inputs": [],
      "name": "name",
      "outputs": [
        {
          "internalType": "string",
          "name": "",
          "type": "string"
        }
      ],
      "stateMutability": "view",
      "type": "function"
    },
    {
      "inputs": [
        {
          "internalType": "uint256",
          "name": "",
          "type": "uint256"
        }
      ],
      "name": "nfts",
      "outputs": [
        {
          "internalType": "uint256",
          "name": "tokenId",
          "type": "uint256"
        },
        {
          "internalType": "uint256",
          "name": "price",
          "type": "uint256"
        },
        {
          "internalType": "address",
          "name": "owner",
          "type": "address"
        },
        {
          "internalType": "bool",
          "name": "isListed",
          "type": "bool"
        }
      ],
      "stateMutability": "view",
      "type": "function"
    },
    {
      "inputs": [],
      "name": "owner",
      "outputs": [
        {
          "internalType": "address",
          "name": "",
          "type": "address"
        }
      ],
      "stateMutability": "view",
      "type": "function"
    },
    {
      "inputs": [
        {
          "internalType": "uint256",
          "name": "tokenId",
          "type": "uint256"
        }
      ],
      "name": "ownerOf",
      "outputs": [
        {
          "internalType": "address",
          "name": "",
          "type": "address"
        }
      ],
      "stateMutability": "view",
      "type": "function"
    },
    {
      "inputs": [],
      "name": "renounceOwnership",
      "outputs": [],
      "stateMutability": "nonpayable",
      "type": "function"
    },
    {
      "inputs": [
        {
          "internalType": "address",
          "name": "from",
          "type": "address"
        },
        {
          "internalType": "address",
          "name": "to",
          "type": "address"
        },
        {
          "internalType": "uint256",
          "name": "tokenId",
          "type": "uint256"
        }
      ],
      "name": "safeTransferFrom",
      "outputs": [],
      "stateMutability": "nonpayable",
      "type": "function"
    },
    {
      "inputs": [
        {
          "internalType": "address",
          "name": "from",
          "type": "address"
        },
        {
          "internalType": "address",
          "name": "to",
          "type": "address"
        },
        {
          "internalType": "uint256",
          "name": "tokenId",
          "type": "uint256"
        },
        {
          "internalType": "bytes",
          "name": "data",
          "type": "bytes"
        }
      ],
      "name": "safeTransferFrom",
      "outputs": [],
      "stateMutability": "nonpayable",
      "type": "function"
    },
    {
      "inputs": [
        {
          "internalType": "address",
          "name": "operator",
          "type": "address"
        },
        {
          "internalType": "bool",
          "name": "approved",
          "type": "bool"
        }
      ],
      "name": "setApprovalForAll",
      "outputs": [],
      "stateMutability": "nonpayable",
      "type": "function"
    },
    {
      "inputs": [
        {
          "internalType": "bytes4",
          "name": "interfaceId",
          "type": "bytes4"
        }
      ],
      "name": "supportsInterface",
      "outputs": [
        {
          "internalType": "bool",
          "name": "",
          "type": "bool"
        }
      ],
      "stateMutability": "view",
      "type": "function"
    },
    {
      "inputs": [],
      "name": "symbol",
      "outputs": [
        {
          "internalType": "string",
          "name": "",
          "type": "string"
        }
      ],
      "stateMutability": "view",
      "type": "function"
    },
    {
      "inputs": [
        {
          "internalType": "uint256",
          "name": "tokenId",
          "type": "uint256"
        }
      ],
      "name": "tokenURI",
      "outputs": [
        {
          "internalType": "string",
          "name": "",
          "type": "string"
        }
      ],
      "stateMutability": "view",
      "type": "function"
    },
    {
      "inputs": [
        {
          "internalType": "address",
          "name": "from",
          "type": "address"
        },
        {
          "internalType": "address",
          "name": "to",
          "type": "address"
        },
        {
          "internalType": "uint256",
          "name": "tokenId",
          "type": "uint256"
        }
      ],
      "name": "transferFrom",
      "outputs": [],
      "stateMutability": "nonpayable",
      "type": "function"
    },
    {
      "inputs": [
        {
          "internalType": "address",
          "name": "newOwner",
          "type": "address"
        }
      ],
      "name": "transferOwnership",
      "outputs": [],
      "stateMutability": "nonpayable",
      "type": "function"
    },
    {
      "inputs": [],
      "name": "withdrawFunds",
      "outputs": [],
      "stateMutability": "nonpayable",
      "type": "function"
    }
  ],
  "bytecode": "0x608060405234801561001057600080fd5b50336040518060400160405280600c81526020017f4e46544d61726b657448756200000000000000000000000000000000000000008152506040518060400160405280600381526020017f4e4d480000000000000000000000000000000000000000000000000000000000815250816000908161008d919061044d565b50806001908161009d919061044d565b505050600073ffffffffffffffffffffffffffffffffffffffff168173ffffffffffffffffffffffffffffffffffffffff16036101125760006040517f1e4fbdf70000000000000000000000000000000000000000000000000000000081526004016101099190610560565b60405180910390fd5b6101218161013760201b60201c565b5060016008819055506001600a8190555061057b565b6000600760009054906101000a900473ffffffffffffffffffffffffffffffffffffffff16905081600760006101000a81548173ffffffffffffffffffffffffffffffffffffffff021916908373ffffffffffffffffffffffffffffffffffffffff1602179055508173ffffffffffffffffffffffffffffffffffffffff168173ffffffffffffffffffffffffffffffffffffffff167f8be0079c531659141344cd1fd0a4f28419497f9722a3daafe3b4186f6b6457e060405160405180910390a35050565b600081519050919050565b7f4e487b7100000000000000000000000000000000000000000000000000000000600052604160045260246000fd5b7f4e487b7100000000000000000000000000000000000000000000000000000000600052602260045260246000fd5b6000600282049050600182168061027e57607f821691505b60208210810361029157610290610237565b5b50919050565b60008190508160005260206000209050919050565b60006020601f8301049050919050565b600082821b905092915050565b6000600883026102f97fffffffffffffffffffffffffffffffffffffffffffffffffffffffffffffffff826102bc565b61030386836102bc565b95508019841693508086168417925050509392505050565b6000819050919050565b6000819050919050565b600061034a6103456103408461031b565b610325565b61031b565b9050919050565b6000819050919050565b6103648361032f565b61037861037082610351565b8484546102c9565b825550505050565b600090565b61038d610380565b61039881848461035b565b505050565b5b818110156103bc576103b1600082610385565b60018101905061039e565b5050565b601f821115610401576103d281610297565b6103db846102ac565b810160208510156103ea578190505b6103fe6103f6856102ac565b83018261039d565b50505b505050565b600082821c905092915050565b600061042460001984600802610406565b1980831691505092915050565b600061043d8383610413565b9150826002028217905092915050565b610456826101fd565b67ffffffffffffffff81111561046f5761046e610208565b5b6104798254610266565b6104848282856103c0565b600060209050601f8311600181146104b757600084156104a5578287015190505b6104af8582610431565b865550610517565b601f1984166104c586610297565b60005b828110156104ed578489015182556001820191506020850194506020810190506104c8565b8683101561050a5784890151610506601f891682610413565b8355505b6001600288020188555050505b505050505050565b600073ffffffffffffffffffffffffffffffffffffffff82169050919050565b600061054a8261051f565b9050919050565b61055a8161053f565b82525050565b60006020820190506105756000830184610551565b92915050565b6134458061058a6000396000f3fe6080604052600436106101355760003560e01c8063715018a6116100ab578063b88d4fde1161006f578063b88d4fde14610406578063c87b56dd1461042f578063cb917b9c1461046c578063e985e9c514610495578063f2fde38b146104d2578063fb37e883146104fb57610135565b8063715018a6146103475780638da5cb5b1461035e57806394383f141461038957806395d89b41146103b2578063a22cb465146103dd57610135565b806324600fc3116100fd57806324600fc314610231578063265aa6211461024857806342842e0e1461028857806351ed8288146102b15780636352211e146102cd57806370a082311461030a57610135565b806301ffc9a71461013a57806306fdde0314610177578063081812fc146101a2578063095ea7b3146101df57806323b872dd14610208575b600080fd5b34801561014657600080fd5b50610161600480360381019061015c91906126d9565b610524565b60405161016e9190612721565b60405180910390f35b34801561018357600080fd5b5061018c610585565b60405161019991906127cc565b60405180910390f35b3480156101ae57600080fd5b506101c960048036038101906101c49190612824565b610617565b6040516101d69190612892565b60405180910390f35b3480156101eb57600080fd5b50610206600480360381019061020191906128d9565b610633565b005b34801561021457600080fd5b5061022f600480360381019061022a9190612919565b610649565b005b34801561023d57600080fd5b5061024661074b565b005b34801561025457600080fd5b5061026f600480360381019061026a9190612824565b6108a7565b60405161027f949392919061297b565b60405180910390f35b34801561029457600080fd5b506102af60048036038101906102aa9190612919565b610904565b005b6102cb60048036038101906102c69190612824565b610924565b005b3480156102d957600080fd5b506102f460048036038101906102ef9190612824565b610a3d565b6040516103019190612892565b60405180910390f35b34801561031657600080fd5b50610331600480360381019061032c91906129c0565b610a4f565b60405161033e91906129ed565b60405180910390f35b34801561035357600080fd5b5061035c610b09565b005b34801561036a57600080fd5b50610373610b1d565b6040516103809190612892565b60405180910390f35b34801561039557600080fd5b506103b060048036038101906103ab9190612a08565b610b47565b005b3480156103be57600080fd5b506103c7610bd0565b6040516103d491906127cc565b60405180910390f35b3480156103e957600080fd5b5061040460048036038101906103ff9190612a74565b610c62565b005b34801561041257600080fd5b5061042d60048036038101906104289190612be9565b610c78565b005b34801561043b57600080fd5b5061045660048036038101906104519190612824565b610c95565b60405161046391906127cc565b60405180910390f35b34801561047857600080fd5b50610493600480360381019061048e9190612824565b610da8565b005b3480156104a157600080fd5b506104bc60048036038101906104b79190612c6c565b610e2c565b6040516104c99190612721565b60405180910390f35b3480156104de57600080fd5b506104f960048036038101906104f491906129c0565b610ec0565b005b34801561050757600080fd5b50610522600480360381019061051d9190612d4d565b610f46565b005b6000634906490660e01b7bffffffffffffffffffffffffffffffffffffffffffffffffffffffff1916827bffffffffffffffffffffffffffffffffffffffffffffffffffffffff1916148061057e575061057d82611089565b5b9050919050565b60606000805461059490612dc5565b80601f01602080910402602001604051908101604052809291908181526020018280546105c090612dc5565b801561060d5780601f106105e25761010080835404028352916020019161060d565b820191906000526020600020905b8154815290600101906020018083116105f057829003601f168201915b5050505050905090565b60006106228261116b565b5061062c826111f3565b9050919050565b6106458282610640611230565b611238565b5050565b600073ffffffffffffffffffffffffffffffffffffffff168273ffffffffffffffffffffffffffffffffffffffff16036106bb5760006040517f64a0ae920000000000000000000000000000000000000000000000000000000081526004016106b29190612892565b60405180910390fd5b60006106cf83836106ca611230565b61124a565b90508373ffffffffffffffffffffffffffffffffffffffff168173ffffffffffffffffffffffffffffffffffffffff1614610745578382826040517f64283d7b00000000000000000000000000000000000000000000000000000000815260040161073c93929190612df6565b60405180910390fd5b50505050565b610753611464565b60004790506000811161079b576040517f08c379a000000000000000000000000000000000000000000000000000000000815260040161079290612e79565b60405180910390fd5b60006107a5610b1d565b73ffffffffffffffffffffffffffffffffffffffff16826040516107c890612eca565b60006040518083038185875af1925050503d8060008114610805576040519150601f19603f3d011682016040523d82523d6000602084013e61080a565b606091505b505090508061084e576040517f08c379a000000000000000000000000000000000000000000000000000000000815260040161084590612f2b565b60405180910390fd5b610856610b1d565b73ffffffffffffffffffffffffffffffffffffffff167feaff4b37086828766ad3268786972c0cd24259d4c87a80f9d3963a3c3d999b0d8360405161089b91906129ed565b60405180910390a25050565b60096020528060005260406000206000915090508060000154908060010154908060020160009054906101000a900473ffffffffffffffffffffffffffffffffffffffff16908060020160149054906101000a900460ff16905084565b61091f83838360405180602001604052806000815250610c78565b505050565b61092c6114eb565b600080610945833360096115319092919063ffffffff16565b9150915080341015610983576040517f356680b700000000000000000000000000000000000000000000000000000000815260040160405180910390fd5b61098e823385611682565b8173ffffffffffffffffffffffffffffffffffffffff166108fc829081150290604051600060405180830381858888f193505050501580156109d4573d6000803e3d6000fd5b5080341115610a30573373ffffffffffffffffffffffffffffffffffffffff166108fc8234610a039190612f7a565b9081150290604051600060405180830381858888f19350505050158015610a2e573d6000803e3d6000fd5b505b5050610a3a6117ef565b50565b6000610a488261116b565b9050919050565b60008073ffffffffffffffffffffffffffffffffffffffff168273ffffffffffffffffffffffffffffffffffffffff1603610ac25760006040517f89c62b64000000000000000000000000000000000000000000000000000000008152600401610ab99190612892565b60405180910390fd5b600360008373ffffffffffffffffffffffffffffffffffffffff1673ffffffffffffffffffffffffffffffffffffffff168152602001908152602001600020549050919050565b610b11611464565b610b1b60006117f9565b565b6000600760009054906101000a900473ffffffffffffffffffffffffffffffffffffffff16905090565b3373ffffffffffffffffffffffffffffffffffffffff16610b6783610a3d565b73ffffffffffffffffffffffffffffffffffffffff1614610bb4576040517f30cd747100000000000000000000000000000000000000000000000000000000815260040160405180910390fd5b610bcc82823360096118bf909392919063ffffffff16565b5050565b606060018054610bdf90612dc5565b80601f0160208091040260200160405190810160405280929190818152602001828054610c0b90612dc5565b8015610c585780601f10610c2d57610100808354040283529160200191610c58565b820191906000526020600020905b815481529060010190602001808311610c3b57829003601f168201915b5050505050905090565b610c74610c6d611230565b8383611a2d565b5050565b610c83848484610649565b610c8f84848484611b9c565b50505050565b6060610ca08261116b565b506000600660008481526020019081526020016000208054610cc190612dc5565b80601f0160208091040260200160405190810160405280929190818152602001828054610ced90612dc5565b8015610d3a5780601f10610d0f57610100808354040283529160200191610d3a565b820191906000526020600020905b815481529060010190602001808311610d1d57829003601f168201915b505050505090506000610d4b611d53565b90506000815103610d60578192505050610da3565b600082511115610d95578082604051602001610d7d929190612fea565b60405160208183030381529060405292505050610da3565b610d9e84611d90565b925050505b919050565b3373ffffffffffffffffffffffffffffffffffffffff16610dc882610a3d565b73ffffffffffffffffffffffffffffffffffffffff1614610e15576040517f30cd747100000000000000000000000000000000000000000000000000000000815260040160405180910390fd5b610e29816009611df990919063ffffffff16565b50565b6000600560008473ffffffffffffffffffffffffffffffffffffffff1673ffffffffffffffffffffffffffffffffffffffff16815260200190815260200160002060008373ffffffffffffffffffffffffffffffffffffffff1673ffffffffffffffffffffffffffffffffffffffff16815260200190815260200160002060009054906101000a900460ff16905092915050565b610ec8611464565b600073ffffffffffffffffffffffffffffffffffffffff168173ffffffffffffffffffffffffffffffffffffffff1603610f3a5760006040517f1e4fbdf7000000000000000000000000000000000000000000000000000000008152600401610f319190612892565b60405180910390fd5b610f43816117f9565b50565b6000600a6000815480929190610f5b9061300e565b919050559050610f6b3382611ecc565b610f758183611eea565b6040518060800160405280828152602001600081526020013373ffffffffffffffffffffffffffffffffffffffff1681526020016000151581525060096000838152602001908152602001600020600082015181600001556020820151816001015560408201518160020160006101000a81548173ffffffffffffffffffffffffffffffffffffffff021916908373ffffffffffffffffffffffffffffffffffffffff16021790555060608201518160020160146101000a81548160ff0219169083151502179055509050503373ffffffffffffffffffffffffffffffffffffffff16817f0176f203df400d7bd5f1b1c9ef36c16709bf3b5d9fd35f000a6bae32393f66c360405160405180910390a35050565b60007f80ac58cd000000000000000000000000000000000000000000000000000000007bffffffffffffffffffffffffffffffffffffffffffffffffffffffff1916827bffffffffffffffffffffffffffffffffffffffffffffffffffffffff1916148061115457507f5b5e139f000000000000000000000000000000000000000000000000000000007bffffffffffffffffffffffffffffffffffffffffffffffffffffffff1916827bffffffffffffffffffffffffffffffffffffffffffffffffffffffff1916145b80611164575061116382611f46565b5b9050919050565b60008061117783611fb0565b9050600073ffffffffffffffffffffffffffffffffffffffff168173ffffffffffffffffffffffffffffffffffffffff16036111ea57826040517f7e2732890000000000000000000000000000000000000000000000000000000081526004016111e191906129ed565b60405180910390fd5b80915050919050565b60006004600083815260200190815260200160002060009054906101000a900473ffffffffffffffffffffffffffffffffffffffff169050919050565b600033905090565b6112458383836001611fed565b505050565b60008061125684611fb0565b9050600073ffffffffffffffffffffffffffffffffffffffff168373ffffffffffffffffffffffffffffffffffffffff1614611298576112978184866121b2565b5b600073ffffffffffffffffffffffffffffffffffffffff168173ffffffffffffffffffffffffffffffffffffffff1614611329576112da600085600080611fed565b6001600360008373ffffffffffffffffffffffffffffffffffffffff1673ffffffffffffffffffffffffffffffffffffffff168152602001908152602001600020600082825403925050819055505b600073ffffffffffffffffffffffffffffffffffffffff168573ffffffffffffffffffffffffffffffffffffffff16146113ac576001600360008773ffffffffffffffffffffffffffffffffffffffff1673ffffffffffffffffffffffffffffffffffffffff168152602001908152602001600020600082825401925050819055505b846002600086815260200190815260200160002060006101000a81548173ffffffffffffffffffffffffffffffffffffffff021916908373ffffffffffffffffffffffffffffffffffffffff160217905550838573ffffffffffffffffffffffffffffffffffffffff168273ffffffffffffffffffffffffffffffffffffffff167fddf252ad1be2c89b69c2b068fc378daa952ba7f163c4a11628f55a4df523b3ef60405160405180910390a4809150509392505050565b61146c611230565b73ffffffffffffffffffffffffffffffffffffffff1661148a610b1d565b73ffffffffffffffffffffffffffffffffffffffff16146114e9576114ad611230565b6040517f118cdaa70000000000000000000000000000000000000000000000000000000081526004016114e09190612892565b60405180910390fd5b565b600260085403611527576040517f3ee5aeb500000000000000000000000000000000000000000000000000000000815260040160405180910390fd5b6002600881905550565b600080600085600086815260200190815260200160002090508060020160149054906101000a900460ff16611592576040517f665c1c5700000000000000000000000000000000000000000000000000000000815260040160405180910390fd5b8060020160009054906101000a900473ffffffffffffffffffffffffffffffffffffffff16925080600101549150838160020160006101000a81548173ffffffffffffffffffffffffffffffffffffffff021916908373ffffffffffffffffffffffffffffffffffffffff16021790555060008160020160146101000a81548160ff021916908315150217905550600081600101819055508373ffffffffffffffffffffffffffffffffffffffff16857f6329e40c0365262ebbff5ca819385c2b9713dcaa050ed07866d72c441395699a8460405161167191906129ed565b60405180910390a350935093915050565b600073ffffffffffffffffffffffffffffffffffffffff168273ffffffffffffffffffffffffffffffffffffffff16036116f45760006040517f64a0ae920000000000000000000000000000000000000000000000000000000081526004016116eb9190612892565b60405180910390fd5b60006117028383600061124a565b9050600073ffffffffffffffffffffffffffffffffffffffff168173ffffffffffffffffffffffffffffffffffffffff160361177557816040517f7e27328900000000000000000000000000000000000000000000000000000000815260040161176c91906129ed565b60405180910390fd5b8373ffffffffffffffffffffffffffffffffffffffff168173ffffffffffffffffffffffffffffffffffffffff16146117e9578382826040517f64283d7b0000000000000000000000000000000000000000000000000000000081526004016117e093929190612df6565b60405180910390fd5b50505050565b6001600881905550565b6000600760009054906101000a900473ffffffffffffffffffffffffffffffffffffffff16905081600760006101000a81548173ffffffffffffffffffffffffffffffffffffffff021916908373ffffffffffffffffffffffffffffffffffffffff1602179055508173ffffffffffffffffffffffffffffffffffffffff168173ffffffffffffffffffffffffffffffffffffffff167f8be0079c531659141344cd1fd0a4f28419497f9722a3daafe3b4186f6b6457e060405160405180910390a35050565b600082036118f9576040517fe1abbfc500000000000000000000000000000000000000000000000000000000815260040160405180910390fd5b83600084815260200190815260200160002060020160149054906101000a900460ff1615611953576040517fa3d582ec00000000000000000000000000000000000000000000000000000000815260040160405180910390fd5b8184600085815260200190815260200160002060010181905550600184600085815260200190815260200160002060020160146101000a81548160ff0219169083151502179055508084600085815260200190815260200160002060020160006101000a81548173ffffffffffffffffffffffffffffffffffffffff021916908373ffffffffffffffffffffffffffffffffffffffff160217905550827fa6cd73580a273eec6c1026108f6b63479fbaef5356dde4ff43e4b38dd187485f83604051611a1f91906129ed565b60405180910390a250505050565b600073ffffffffffffffffffffffffffffffffffffffff168273ffffffffffffffffffffffffffffffffffffffff1603611a9e57816040517f5b08ba18000000000000000000000000000000000000000000000000000000008152600401611a959190612892565b60405180910390fd5b80600560008573ffffffffffffffffffffffffffffffffffffffff1673ffffffffffffffffffffffffffffffffffffffff16815260200190815260200160002060008473ffffffffffffffffffffffffffffffffffffffff1673ffffffffffffffffffffffffffffffffffffffff16815260200190815260200160002060006101000a81548160ff0219169083151502179055508173ffffffffffffffffffffffffffffffffffffffff168373ffffffffffffffffffffffffffffffffffffffff167f17307eab39ab6107e8899845ad3d59bd9653f200f220920489ca2b5937696c3183604051611b8f9190612721565b60405180910390a3505050565b60008373ffffffffffffffffffffffffffffffffffffffff163b1115611d4d578273ffffffffffffffffffffffffffffffffffffffff1663150b7a02611be0611230565b8685856040518563ffffffff1660e01b8152600401611c0294939291906130ab565b6020604051808303816000875af1925050508015611c3e57506040513d601f19601f82011682018060405250810190611c3b919061310c565b60015b611cc2573d8060008114611c6e576040519150601f19603f3d011682016040523d82523d6000602084013e611c73565b606091505b506000815103611cba57836040517f64a0ae92000000000000000000000000000000000000000000000000000000008152600401611cb19190612892565b60405180910390fd5b805181602001fd5b63150b7a0260e01b7bffffffffffffffffffffffffffffffffffffffffffffffffffffffff1916817bffffffffffffffffffffffffffffffffffffffffffffffffffffffff191614611d4b57836040517f64a0ae92000000000000000000000000000000000000000000000000000000008152600401611d429190612892565b60405180910390fd5b505b50505050565b60606040518060400160405280602081526020017f68747470733a2f2f6170692e6e66746875622e636f6d2f6d657461646174612f815250905090565b6060611d9b8261116b565b506000611da6611d53565b90506000815111611dc65760405180602001604052806000815250611df1565b80611dd084612276565b604051602001611de1929190612fea565b6040516020818303038152906040525b915050919050565b81600082815260200190815260200160002060020160149054906101000a900460ff16611e52576040517f665c1c5700000000000000000000000000000000000000000000000000000000815260040160405180910390fd5b600082600083815260200190815260200160002060020160146101000a81548160ff021916908315150217905550600082600083815260200190815260200160002060010181905550807fc0c55a6edead4433d18cb1e287a0a20a2fa003a6f483bc9823d2e504d70d1c6760405160405180910390a25050565b611ee6828260405180602001604052806000815250612344565b5050565b80600660008481526020019081526020016000209081611f0a91906132e5565b507ff8e1a15aba9398e019f0b49df1a4fde98ee17ae345cb5f6b5e2c27f5033e8ce782604051611f3a91906129ed565b60405180910390a15050565b60007f01ffc9a7000000000000000000000000000000000000000000000000000000007bffffffffffffffffffffffffffffffffffffffffffffffffffffffff1916827bffffffffffffffffffffffffffffffffffffffffffffffffffffffff1916149050919050565b60006002600083815260200190815260200160002060009054906101000a900473ffffffffffffffffffffffffffffffffffffffff169050919050565b80806120265750600073ffffffffffffffffffffffffffffffffffffffff168273ffffffffffffffffffffffffffffffffffffffff1614155b1561215a5760006120368461116b565b9050600073ffffffffffffffffffffffffffffffffffffffff168373ffffffffffffffffffffffffffffffffffffffff16141580156120a157508273ffffffffffffffffffffffffffffffffffffffff168173ffffffffffffffffffffffffffffffffffffffff1614155b80156120b457506120b28184610e2c565b155b156120f657826040517fa9fbf51f0000000000000000000000000000000000000000000000000000000081526004016120ed9190612892565b60405180910390fd5b811561215857838573ffffffffffffffffffffffffffffffffffffffff168273ffffffffffffffffffffffffffffffffffffffff167f8c5be1e5ebec7d5bd14f71427d1e84f3dd0314c0f7b2291e5b200ac8c7c3b92560405160405180910390a45b505b836004600085815260200190815260200160002060006101000a81548173ffffffffffffffffffffffffffffffffffffffff021916908373ffffffffffffffffffffffffffffffffffffffff16021790555050505050565b6121bd838383612360565b61227157600073ffffffffffffffffffffffffffffffffffffffff168373ffffffffffffffffffffffffffffffffffffffff160361223257806040517f7e27328900000000000000000000000000000000000000000000000000000000815260040161222991906129ed565b60405180910390fd5b81816040517f177e802f0000000000000000000000000000000000000000000000000000000081526004016122689291906133b7565b60405180910390fd5b505050565b60606000600161228584612421565b01905060008167ffffffffffffffff8111156122a4576122a3612abe565b5b6040519080825280601f01601f1916602001820160405280156122d65781602001600182028036833780820191505090505b509050600082602001820190505b600115612339578080600190039150507f3031323334353637383961626364656600000000000000000000000000000000600a86061a8153600a858161232d5761232c6133e0565b5b049450600085036122e4575b819350505050919050565b61234e8383612574565b61235b6000848484611b9c565b505050565b60008073ffffffffffffffffffffffffffffffffffffffff168373ffffffffffffffffffffffffffffffffffffffff161415801561241857508273ffffffffffffffffffffffffffffffffffffffff168473ffffffffffffffffffffffffffffffffffffffff1614806123d957506123d88484610e2c565b5b8061241757508273ffffffffffffffffffffffffffffffffffffffff166123ff836111f3565b73ffffffffffffffffffffffffffffffffffffffff16145b5b90509392505050565b600080600090507a184f03e93ff9f4daa797ed6e38ed64bf6a1f010000000000000000831061247f577a184f03e93ff9f4daa797ed6e38ed64bf6a1f0100000000000000008381612475576124746133e0565b5b0492506040810190505b6d04ee2d6d415b85acef810000000083106124bc576d04ee2d6d415b85acef810000000083816124b2576124b16133e0565b5b0492506020810190505b662386f26fc1000083106124eb57662386f26fc1000083816124e1576124e06133e0565b5b0492506010810190505b6305f5e1008310612514576305f5e100838161250a576125096133e0565b5b0492506008810190505b612710831061253957612710838161252f5761252e6133e0565b5b0492506004810190505b6064831061255c5760648381612552576125516133e0565b5b0492506002810190505b600a831061256b576001810190505b80915050919050565b600073ffffffffffffffffffffffffffffffffffffffff168273ffffffffffffffffffffffffffffffffffffffff16036125e65760006040517f64a0ae920000000000000000000000000000000000000000000000000000000081526004016125dd9190612892565b60405180910390fd5b60006125f48383600061124a565b9050600073ffffffffffffffffffffffffffffffffffffffff168173ffffffffffffffffffffffffffffffffffffffff16146126685760006040517f73c6ac6e00000000000000000000000000000000000000000000000000000000815260040161265f9190612892565b60405180910390fd5b505050565b6000604051905090565b600080fd5b600080fd5b60007fffffffff0000000000000000000000000000000000000000000000000000000082169050919050565b6126b681612681565b81146126c157600080fd5b50565b6000813590506126d3816126ad565b92915050565b6000602082840312156126ef576126ee612677565b5b60006126fd848285016126c4565b91505092915050565b60008115159050919050565b61271b81612706565b82525050565b60006020820190506127366000830184612712565b92915050565b600081519050919050565b600082825260208201905092915050565b60005b8381101561277657808201518184015260208101905061275b565b60008484015250505050565b6000601f19601f8301169050919050565b600061279e8261273c565b6127a88185612747565b93506127b8818560208601612758565b6127c181612782565b840191505092915050565b600060208201905081810360008301526127e68184612793565b905092915050565b6000819050919050565b612801816127ee565b811461280c57600080fd5b50565b60008135905061281e816127f8565b92915050565b60006020828403121561283a57612839612677565b5b60006128488482850161280f565b91505092915050565b600073ffffffffffffffffffffffffffffffffffffffff82169050919050565b600061287c82612851565b9050919050565b61288c81612871565b82525050565b60006020820190506128a76000830184612883565b92915050565b6128b681612871565b81146128c157600080fd5b50565b6000813590506128d3816128ad565b92915050565b600080604083850312156128f0576128ef612677565b5b60006128fe858286016128c4565b925050602061290f8582860161280f565b9150509250929050565b60008060006060848603121561293257612931612677565b5b6000612940868287016128c4565b9350506020612951868287016128c4565b92505060406129628682870161280f565b9150509250925092565b612975816127ee565b82525050565b6000608082019050612990600083018761296c565b61299d602083018661296c565b6129aa6040830185612883565b6129b76060830184612712565b95945050505050565b6000602082840312156129d6576129d5612677565b5b60006129e4848285016128c4565b91505092915050565b6000602082019050612a02600083018461296c565b92915050565b60008060408385031215612a1f57612a1e612677565b5b6000612a2d8582860161280f565b9250506020612a3e8582860161280f565b9150509250929050565b612a5181612706565b8114612a5c57600080fd5b50565b600081359050612a6e81612a48565b92915050565b60008060408385031215612a8b57612a8a612677565b5b6000612a99858286016128c4565b9250506020612aaa85828601612a5f565b9150509250929050565b600080fd5b600080fd5b7f4e487b7100000000000000000000000000000000000000000000000000000000600052604160045260246000fd5b612af682612782565b810181811067ffffffffffffffff82111715612b1557612b14612abe565b5b80604052505050565b6000612b2861266d565b9050612b348282612aed565b919050565b600067ffffffffffffffff821115612b5457612b53612abe565b5b612b5d82612782565b9050602081019050919050565b82818337600083830152505050565b6000612b8c612b8784612b39565b612b1e565b905082815260208101848484011115612ba857612ba7612ab9565b5b612bb3848285612b6a565b509392505050565b600082601f830112612bd057612bcf612ab4565b5b8135612be0848260208601612b79565b91505092915050565b60008060008060808587031215612c0357612c02612677565b5b6000612c11878288016128c4565b9450506020612c22878288016128c4565b9350506040612c338782880161280f565b925050606085013567ffffffffffffffff811115612c5457612c5361267c565b5b612c6087828801612bbb565b91505092959194509250565b60008060408385031215612c8357612c82612677565b5b6000612c91858286016128c4565b9250506020612ca2858286016128c4565b9150509250929050565b600067ffffffffffffffff821115612cc757612cc6612abe565b5b612cd082612782565b9050602081019050919050565b6000612cf0612ceb84612cac565b612b1e565b905082815260208101848484011115612d0c57612d0b612ab9565b5b612d17848285612b6a565b509392505050565b600082601f830112612d3457612d33612ab4565b5b8135612d44848260208601612cdd565b91505092915050565b600060208284031215612d6357612d62612677565b5b600082013567ffffffffffffffff811115612d8157612d8061267c565b5b612d8d84828501612d1f565b91505092915050565b7f4e487b7100000000000000000000000000000000000000000000000000000000600052602260045260246000fd5b60006002820490506001821680612ddd57607f821691505b602082108103612df057612def612d96565b5b50919050565b6000606082019050612e0b6000830186612883565b612e18602083018561296c565b612e256040830184612883565b949350505050565b7f4e6f2066756e647320746f207769746864726177000000000000000000000000600082015250565b6000612e63601483612747565b9150612e6e82612e2d565b602082019050919050565b60006020820190508181036000830152612e9281612e56565b9050919050565b600081905092915050565b50565b6000612eb4600083612e99565b9150612ebf82612ea4565b600082019050919050565b6000612ed582612ea7565b9150819050919050565b7f5472616e73666572206661696c65640000000000000000000000000000000000600082015250565b6000612f15600f83612747565b9150612f2082612edf565b602082019050919050565b60006020820190508181036000830152612f4481612f08565b9050919050565b7f4e487b7100000000000000000000000000000000000000000000000000000000600052601160045260246000fd5b6000612f85826127ee565b9150612f90836127ee565b9250828203905081811115612fa857612fa7612f4b565b5b92915050565b600081905092915050565b6000612fc48261273c565b612fce8185612fae565b9350612fde818560208601612758565b80840191505092915050565b6000612ff68285612fb9565b91506130028284612fb9565b91508190509392505050565b6000613019826127ee565b91507fffffffffffffffffffffffffffffffffffffffffffffffffffffffffffffffff820361304b5761304a612f4b565b5b600182019050919050565b600081519050919050565b600082825260208201905092915050565b600061307d82613056565b6130878185613061565b9350613097818560208601612758565b6130a081612782565b840191505092915050565b60006080820190506130c06000830187612883565b6130cd6020830186612883565b6130da604083018561296c565b81810360608301526130ec8184613072565b905095945050505050565b600081519050613106816126ad565b92915050565b60006020828403121561312257613121612677565b5b6000613130848285016130f7565b91505092915050565b60008190508160005260206000209050919050565b60006020601f8301049050919050565b600082821b905092915050565b60006008830261319b7fffffffffffffffffffffffffffffffffffffffffffffffffffffffffffffffff8261315e565b6131a5868361315e565b95508019841693508086168417925050509392505050565b6000819050919050565b60006131e26131dd6131d8846127ee565b6131bd565b6127ee565b9050919050565b6000819050919050565b6131fc836131c7565b613210613208826131e9565b84845461316b565b825550505050565b600090565b613225613218565b6132308184846131f3565b505050565b5b818110156132545761324960008261321d565b600181019050613236565b5050565b601f8211156132995761326a81613139565b6132738461314e565b81016020851015613282578190505b61329661328e8561314e565b830182613235565b50505b505050565b600082821c905092915050565b60006132bc6000198460080261329e565b1980831691505092915050565b60006132d583836132ab565b9150826002028217905092915050565b6132ee8261273c565b67ffffffffffffffff81111561330757613306612abe565b5b6133118254612dc5565b61331c828285613258565b600060209050601f83116001811461334f576000841561333d578287015190505b61334785826132c9565b8655506133af565b601f19841661335d86613139565b60005b8281101561338557848901518255600182019150602085019450602081019050613360565b868310156133a2578489015161339e601f8916826132ab565b8355505b6001600288020188555050505b505050505050565b60006040820190506133cc6000830185612883565b6133d9602083018461296c565b9392505050565b7f4e487b7100000000000000000000000000000000000000000000000000000000600052601260045260246000fdfea26469706673582212207d33eb865962529652748d466ff53c018b771c9b0ad168a49049cdc7f82e590464736f6c634300081b0033",
  "linkReferences": {},
  "deployedLinkReferences": {}
}